{
  "_format": "hh-sol-artifact-1",
  "contractName": "Complain",
  "sourceName": "contracts/Complain.sol",
  "abi": [
    {
      "anonymous": false,
      "inputs": [
        {
          "indexed": true,
          "internalType": "uint256",
          "name": "amount",
          "type": "uint256"
        }
      ],
      "name": "EtherReceived",
      "type": "event"
    },
    {
      "stateMutability": "payable",
      "type": "fallback"
    },
    {
      "inputs": [
        {
          "internalType": "uint256",
          "name": "",
          "type": "uint256"
        }
      ],
      "name": "Complains",
      "outputs": [
        {
          "internalType": "string",
          "name": "id",
          "type": "string"
        },
        {
          "internalType": "string",
          "name": "name",
          "type": "string"
        },
        {
          "internalType": "string",
          "name": "complainAddress",
          "type": "string"
        },
        {
          "internalType": "string",
          "name": "complain",
          "type": "string"
        },
        {
          "internalType": "string",
          "name": "phone",
          "type": "string"
        },
        {
          "internalType": "string",
          "name": "status",
          "type": "string"
        },
        {
          "internalType": "string",
          "name": "report",
          "type": "string"
        }
      ],
      "stateMutability": "view",
      "type": "function"
    },
    {
      "inputs": [
        {
          "internalType": "string",
          "name": "_id",
          "type": "string"
        },
        {
          "internalType": "string",
          "name": "_name",
          "type": "string"
        },
        {
          "internalType": "string",
          "name": "_address",
          "type": "string"
        },
        {
          "internalType": "string",
          "name": "_complain",
          "type": "string"
        },
        {
          "internalType": "string",
          "name": "phone",
          "type": "string"
        }
      ],
      "name": "addComplains",
      "outputs": [],
      "stateMutability": "nonpayable",
      "type": "function"
    },
    {
      "inputs": [
        {
          "internalType": "string",
          "name": "_report",
          "type": "string"
        },
        {
          "internalType": "string",
          "name": "_id",
          "type": "string"
        },
        {
          "internalType": "string",
          "name": "_status",
          "type": "string"
        }
      ],
      "name": "addReport",
      "outputs": [],
      "stateMutability": "nonpayable",
      "type": "function"
    },
    {
      "inputs": [
        {
          "internalType": "string",
          "name": "_status",
          "type": "string"
        },
        {
          "internalType": "string",
          "name": "_id",
          "type": "string"
        }
      ],
      "name": "addStatus",
      "outputs": [],
      "stateMutability": "nonpayable",
      "type": "function"
    },
    {
      "inputs": [],
      "name": "getPhoneComplaints",
      "outputs": [
        {
          "components": [
            {
              "internalType": "string",
              "name": "id",
              "type": "string"
            },
            {
              "internalType": "string",
              "name": "name",
              "type": "string"
            },
            {
              "internalType": "string",
              "name": "complainAddress",
              "type": "string"
            },
            {
              "internalType": "string",
              "name": "complain",
              "type": "string"
            },
            {
              "internalType": "string",
              "name": "phone",
              "type": "string"
            },
            {
              "internalType": "string",
              "name": "status",
              "type": "string"
            },
            {
              "internalType": "string",
              "name": "report",
              "type": "string"
            }
          ],
          "internalType": "struct Complain.ComplainDetails[]",
          "name": "",
          "type": "tuple[]"
        }
      ],
      "stateMutability": "view",
      "type": "function"
    },
    {
      "stateMutability": "payable",
      "type": "receive"
    }
  ],
  "bytecode": "0x608060405234801561001057600080fd5b5061179a806100206000396000f3fe60806040526004361061004e5760003560e01c80632bdff69b146100b157806349d9bf59146100da5780636bbdb899146101035780637cfa762c1461012c578063bc0c8f731461016f57610082565b3661008257347f0a34e3d4f1e6b837dbce1011b61499fa1a483a0abee6a7a6697660b4b2d9713260405160405180910390a2005b347f0a34e3d4f1e6b837dbce1011b61499fa1a483a0abee6a7a6697660b4b2d9713260405160405180910390a2005b3480156100bd57600080fd5b506100d860048036038101906100d39190610d69565b61019a565b005b3480156100e657600080fd5b5061010160048036038101906100fc9190610e70565b610242565b005b34801561010f57600080fd5b5061012a60048036038101906101259190610ee8565b61028f565b005b34801561013857600080fd5b50610153600480360381019061014e9190610fc5565b6102ef565b6040516101669796959493929190611071565b60405180910390f35b34801561017b57600080fd5b506101846106f9565b60405161019191906112e3565b60405180910390f35b600080600181600181540180825580915050039060005260206000209060070201905085858585858560000160008760010160008960020160008b60030160008d60040160008a91905090816101f09190611511565b508991905090816102019190611511565b508891905090816102129190611511565b508791905090816102239190611511565b508691905090816102349190611511565b505050505050505050505050565b600061024d82610b56565b90506000808260ff1681548110610267576102666115e3565b5b90600052602060002090600702019050838160050190816102889190611511565b5050505050565b600061029a83610b56565b90506000808260ff16815481106102b4576102b36115e3565b5b90600052602060002090600702019050848160060190816102d59190611511565b50828160050190816102e79190611511565b505050505050565b600081815481106102ff57600080fd5b906000526020600020906007020160009150905080600001805461032290611334565b80601f016020809104026020016040519081016040528092919081815260200182805461034e90611334565b801561039b5780601f106103705761010080835404028352916020019161039b565b820191906000526020600020905b81548152906001019060200180831161037e57829003601f168201915b5050505050908060010180546103b090611334565b80601f01602080910402602001604051908101604052809291908181526020018280546103dc90611334565b80156104295780601f106103fe57610100808354040283529160200191610429565b820191906000526020600020905b81548152906001019060200180831161040c57829003601f168201915b50505050509080600201805461043e90611334565b80601f016020809104026020016040519081016040528092919081815260200182805461046a90611334565b80156104b75780601f1061048c576101008083540402835291602001916104b7565b820191906000526020600020905b81548152906001019060200180831161049a57829003601f168201915b5050505050908060030180546104cc90611334565b80601f01602080910402602001604051908101604052809291908181526020018280546104f890611334565b80156105455780601f1061051a57610100808354040283529160200191610545565b820191906000526020600020905b81548152906001019060200180831161052857829003601f168201915b50505050509080600401805461055a90611334565b80601f016020809104026020016040519081016040528092919081815260200182805461058690611334565b80156105d35780601f106105a8576101008083540402835291602001916105d3565b820191906000526020600020905b8154815290600101906020018083116105b657829003601f168201915b5050505050908060050180546105e890611334565b80601f016020809104026020016040519081016040528092919081815260200182805461061490611334565b80156106615780601f1061063657610100808354040283529160200191610661565b820191906000526020600020905b81548152906001019060200180831161064457829003601f168201915b50505050509080600601805461067690611334565b80601f01602080910402602001604051908101604052809291908181526020018280546106a290611334565b80156106ef5780601f106106c4576101008083540402835291602001916106ef565b820191906000526020600020905b8154815290600101906020018083116106d257829003601f168201915b5050505050905087565b60606000805480602002602001604051908101604052809291908181526020016000905b82821015610b4d57838290600052602060002090600702016040518060e001604052908160008201805461075090611334565b80601f016020809104026020016040519081016040528092919081815260200182805461077c90611334565b80156107c95780601f1061079e576101008083540402835291602001916107c9565b820191906000526020600020905b8154815290600101906020018083116107ac57829003601f168201915b505050505081526020016001820180546107e290611334565b80601f016020809104026020016040519081016040528092919081815260200182805461080e90611334565b801561085b5780601f106108305761010080835404028352916020019161085b565b820191906000526020600020905b81548152906001019060200180831161083e57829003601f168201915b5050505050815260200160028201805461087490611334565b80601f01602080910402602001604051908101604052809291908181526020018280546108a090611334565b80156108ed5780601f106108c2576101008083540402835291602001916108ed565b820191906000526020600020905b8154815290600101906020018083116108d057829003601f168201915b5050505050815260200160038201805461090690611334565b80601f016020809104026020016040519081016040528092919081815260200182805461093290611334565b801561097f5780601f106109545761010080835404028352916020019161097f565b820191906000526020600020905b81548152906001019060200180831161096257829003601f168201915b5050505050815260200160048201805461099890611334565b80601f01602080910402602001604051908101604052809291908181526020018280546109c490611334565b8015610a115780601f106109e657610100808354040283529160200191610a11565b820191906000526020600020905b8154815290600101906020018083116109f457829003601f168201915b50505050508152602001600582018054610a2a90611334565b80601f0160208091040260200160405190810160405280929190818152602001828054610a5690611334565b8015610aa35780601f10610a7857610100808354040283529160200191610aa3565b820191906000526020600020905b815481529060010190602001808311610a8657829003601f168201915b50505050508152602001600682018054610abc90611334565b80601f0160208091040260200160405190810160405280929190818152602001828054610ae890611334565b8015610b355780601f10610b0a57610100808354040283529160200191610b35565b820191906000526020600020905b815481529060010190602001808311610b1857829003601f168201915b5050505050815250508152602001906001019061071d565b50505050905090565b600080600090505b6000805490508160ff161015610c045782604051602001610b7f919061164e565b6040516020818303038152906040528051906020012060008260ff1681548110610bac57610bab6115e3565b5b9060005260206000209060070201600001604051602001610bcd91906116e8565b6040516020818303038152906040528051906020012003610bf15780915050610c0a565b8080610bfc9061173b565b915050610b5e565b50600090505b919050565b6000604051905090565b600080fd5b600080fd5b600080fd5b600080fd5b6000601f19601f8301169050919050565b7f4e487b7100000000000000000000000000000000000000000000000000000000600052604160045260246000fd5b610c7682610c2d565b810181811067ffffffffffffffff82111715610c9557610c94610c3e565b5b80604052505050565b6000610ca8610c0f565b9050610cb48282610c6d565b919050565b600067ffffffffffffffff821115610cd457610cd3610c3e565b5b610cdd82610c2d565b9050602081019050919050565b82818337600083830152505050565b6000610d0c610d0784610cb9565b610c9e565b905082815260208101848484011115610d2857610d27610c28565b5b610d33848285610cea565b509392505050565b600082601f830112610d5057610d4f610c23565b5b8135610d60848260208601610cf9565b91505092915050565b600080600080600060a08688031215610d8557610d84610c19565b5b600086013567ffffffffffffffff811115610da357610da2610c1e565b5b610daf88828901610d3b565b955050602086013567ffffffffffffffff811115610dd057610dcf610c1e565b5b610ddc88828901610d3b565b945050604086013567ffffffffffffffff811115610dfd57610dfc610c1e565b5b610e0988828901610d3b565b935050606086013567ffffffffffffffff811115610e2a57610e29610c1e565b5b610e3688828901610d3b565b925050608086013567ffffffffffffffff811115610e5757610e56610c1e565b5b610e6388828901610d3b565b9150509295509295909350565b60008060408385031215610e8757610e86610c19565b5b600083013567ffffffffffffffff811115610ea557610ea4610c1e565b5b610eb185828601610d3b565b925050602083013567ffffffffffffffff811115610ed257610ed1610c1e565b5b610ede85828601610d3b565b9150509250929050565b600080600060608486031215610f0157610f00610c19565b5b600084013567ffffffffffffffff811115610f1f57610f1e610c1e565b5b610f2b86828701610d3b565b935050602084013567ffffffffffffffff811115610f4c57610f4b610c1e565b5b610f5886828701610d3b565b925050604084013567ffffffffffffffff811115610f7957610f78610c1e565b5b610f8586828701610d3b565b9150509250925092565b6000819050919050565b610fa281610f8f565b8114610fad57600080fd5b50565b600081359050610fbf81610f99565b92915050565b600060208284031215610fdb57610fda610c19565b5b6000610fe984828501610fb0565b91505092915050565b600081519050919050565b600082825260208201905092915050565b60005b8381101561102c578082015181840152602081019050611011565b60008484015250505050565b600061104382610ff2565b61104d8185610ffd565b935061105d81856020860161100e565b61106681610c2d565b840191505092915050565b600060e082019050818103600083015261108b818a611038565b9050818103602083015261109f8189611038565b905081810360408301526110b38188611038565b905081810360608301526110c78187611038565b905081810360808301526110db8186611038565b905081810360a08301526110ef8185611038565b905081810360c08301526111038184611038565b905098975050505050505050565b600081519050919050565b600082825260208201905092915050565b6000819050602082019050919050565b600082825260208201905092915050565b600061115982610ff2565b611163818561113d565b935061117381856020860161100e565b61117c81610c2d565b840191505092915050565b600060e08301600083015184820360008601526111a4828261114e565b915050602083015184820360208601526111be828261114e565b915050604083015184820360408601526111d8828261114e565b915050606083015184820360608601526111f2828261114e565b9150506080830151848203608086015261120c828261114e565b91505060a083015184820360a0860152611226828261114e565b91505060c083015184820360c0860152611240828261114e565b9150508091505092915050565b60006112598383611187565b905092915050565b6000602082019050919050565b600061127982611111565b611283818561111c565b9350836020820285016112958561112d565b8060005b858110156112d157848403895281516112b2858261124d565b94506112bd83611261565b925060208a01995050600181019050611299565b50829750879550505050505092915050565b600060208201905081810360008301526112fd818461126e565b905092915050565b7f4e487b7100000000000000000000000000000000000000000000000000000000600052602260045260246000fd5b6000600282049050600182168061134c57607f821691505b60208210810361135f5761135e611305565b5b50919050565b60008190508160005260206000209050919050565b60006020601f8301049050919050565b600082821b905092915050565b6000600883026113c77fffffffffffffffffffffffffffffffffffffffffffffffffffffffffffffffff8261138a565b6113d1868361138a565b95508019841693508086168417925050509392505050565b6000819050919050565b600061140e61140961140484610f8f565b6113e9565b610f8f565b9050919050565b6000819050919050565b611428836113f3565b61143c61143482611415565b848454611397565b825550505050565b600090565b611451611444565b61145c81848461141f565b505050565b5b8181101561148057611475600082611449565b600181019050611462565b5050565b601f8211156114c55761149681611365565b61149f8461137a565b810160208510156114ae578190505b6114c26114ba8561137a565b830182611461565b50505b505050565b600082821c905092915050565b60006114e8600019846008026114ca565b1980831691505092915050565b600061150183836114d7565b9150826002028217905092915050565b61151a82610ff2565b67ffffffffffffffff81111561153357611532610c3e565b5b61153d8254611334565b611548828285611484565b600060209050601f83116001811461157b5760008415611569578287015190505b61157385826114f5565b8655506115db565b601f19841661158986611365565b60005b828110156115b15784890151825560018201915060208501945060208101905061158c565b868310156115ce57848901516115ca601f8916826114d7565b8355505b6001600288020188555050505b505050505050565b7f4e487b7100000000000000000000000000000000000000000000000000000000600052603260045260246000fd5b600081905092915050565b600061162882610ff2565b6116328185611612565b935061164281856020860161100e565b80840191505092915050565b600061165a828461161d565b915081905092915050565b6000815461167281611334565b61167c8186611612565b9450600182166000811461169757600181146116ac576116df565b60ff19831686528115158202860193506116df565b6116b585611365565b60005b838110156116d7578154818901526001820191506020810190506116b8565b838801955050505b50505092915050565b60006116f48284611665565b915081905092915050565b7f4e487b7100000000000000000000000000000000000000000000000000000000600052601160045260246000fd5b600060ff82169050919050565b60006117468261172e565b915060ff8203611759576117586116ff565b5b60018201905091905056fea264697066735822122053fdf4c08c3643e600909fe65b1efc09ff07918c7430eedcfb802c619683068764736f6c63430008130033",
  "linkReferences": {},
  "deployedLinkReferences": {}
}