{"contracts/Complain.sol":{"Complain":{"abi":[{"anonymous":false,"inputs":[{"indexed":true,"internalType":"uint256","name":"amount","type":"uint256"}],"name":"EtherReceived","type":"event"},{"stateMutability":"payable","type":"fallback"},{"inputs":[{"internalType":"uint256","name":"","type":"uint256"}],"name":"Complains","outputs":[{"internalType":"string","name":"id","type":"string"},{"internalType":"string","name":"name","type":"string"},{"internalType":"string","name":"complainAddress","type":"string"},{"internalType":"string","name":"complain","type":"string"},{"internalType":"string","name":"phone","type":"string"},{"internalType":"string","name":"status","type":"string"},{"internalType":"string","name":"report","type":"string"}],"stateMutability":"view","type":"function"},{"inputs":[{"internalType":"string","name":"_id","type":"string"},{"internalType":"string","name":"_name","type":"string"},{"internalType":"string","name":"_address","type":"string"},{"internalType":"string","name":"_complain","type":"string"},{"internalType":"string","name":"phone","type":"string"}],"name":"addComplains","outputs":[],"stateMutability":"nonpayable","type":"function"},{"inputs":[{"internalType":"string","name":"_report","type":"string"},{"internalType":"string","name":"_id","type":"string"},{"internalType":"string","name":"_status","type":"string"}],"name":"addReport","outputs":[],"stateMutability":"nonpayable","type":"function"},{"inputs":[{"internalType":"string","name":"_status","type":"string"},{"internalType":"string","name":"_id","type":"string"}],"name":"addStatus","outputs":[],"stateMutability":"nonpayable","type":"function"},{"inputs":[],"name":"getPhoneComplaints","outputs":[{"components":[{"internalType":"string","name":"id","type":"string"},{"internalType":"string","name":"name","type":"string"},{"internalType":"string","name":"complainAddress","type":"string"},{"internalType":"string","name":"complain","type":"string"},{"internalType":"string","name":"phone","type":"string"},{"internalType":"string","name":"status","type":"string"},{"internalType":"string","name":"report","type":"string"}],"internalType":"struct Complain.ComplainDetails[]","name":"","type":"tuple[]"}],"stateMutability":"view","type":"function"},{"stateMutability":"payable","type":"receive"}],"evm":{"bytecode":{"linkReferences":{},"object":"608060405234801561001057600080fd5b5061179a806100206000396000f3fe60806040526004361061004e5760003560e01c80632bdff69b146100b157806349d9bf59146100da5780636bbdb899146101035780637cfa762c1461012c578063bc0c8f731461016f57610082565b3661008257347f0a34e3d4f1e6b837dbce1011b61499fa1a483a0abee6a7a6697660b4b2d9713260405160405180910390a2005b347f0a34e3d4f1e6b837dbce1011b61499fa1a483a0abee6a7a6697660b4b2d9713260405160405180910390a2005b3480156100bd57600080fd5b506100d860048036038101906100d39190610d69565b61019a565b005b3480156100e657600080fd5b5061010160048036038101906100fc9190610e70565b610242565b005b34801561010f57600080fd5b5061012a60048036038101906101259190610ee8565b61028f565b005b34801561013857600080fd5b50610153600480360381019061014e9190610fc5565b6102ef565b6040516101669796959493929190611071565b60405180910390f35b34801561017b57600080fd5b506101846106f9565b60405161019191906112e3565b60405180910390f35b600080600181600181540180825580915050039060005260206000209060070201905085858585858560000160008760010160008960020160008b60030160008d60040160008a91905090816101f09190611511565b508991905090816102019190611511565b508891905090816102129190611511565b508791905090816102239190611511565b508691905090816102349190611511565b505050505050505050505050565b600061024d82610b56565b90506000808260ff1681548110610267576102666115e3565b5b90600052602060002090600702019050838160050190816102889190611511565b5050505050565b600061029a83610b56565b90506000808260ff16815481106102b4576102b36115e3565b5b90600052602060002090600702019050848160060190816102d59190611511565b50828160050190816102e79190611511565b505050505050565b600081815481106102ff57600080fd5b906000526020600020906007020160009150905080600001805461032290611334565b80601f016020809104026020016040519081016040528092919081815260200182805461034e90611334565b801561039b5780601f106103705761010080835404028352916020019161039b565b820191906000526020600020905b81548152906001019060200180831161037e57829003601f168201915b5050505050908060010180546103b090611334565b80601f01602080910402602001604051908101604052809291908181526020018280546103dc90611334565b80156104295780601f106103fe57610100808354040283529160200191610429565b820191906000526020600020905b81548152906001019060200180831161040c57829003601f168201915b50505050509080600201805461043e90611334565b80601f016020809104026020016040519081016040528092919081815260200182805461046a90611334565b80156104b75780601f1061048c576101008083540402835291602001916104b7565b820191906000526020600020905b81548152906001019060200180831161049a57829003601f168201915b5050505050908060030180546104cc90611334565b80601f01602080910402602001604051908101604052809291908181526020018280546104f890611334565b80156105455780601f1061051a57610100808354040283529160200191610545565b820191906000526020600020905b81548152906001019060200180831161052857829003601f168201915b50505050509080600401805461055a90611334565b80601f016020809104026020016040519081016040528092919081815260200182805461058690611334565b80156105d35780601f106105a8576101008083540402835291602001916105d3565b820191906000526020600020905b8154815290600101906020018083116105b657829003601f168201915b5050505050908060050180546105e890611334565b80601f016020809104026020016040519081016040528092919081815260200182805461061490611334565b80156106615780601f1061063657610100808354040283529160200191610661565b820191906000526020600020905b81548152906001019060200180831161064457829003601f168201915b50505050509080600601805461067690611334565b80601f01602080910402602001604051908101604052809291908181526020018280546106a290611334565b80156106ef5780601f106106c4576101008083540402835291602001916106ef565b820191906000526020600020905b8154815290600101906020018083116106d257829003601f168201915b5050505050905087565b60606000805480602002602001604051908101604052809291908181526020016000905b82821015610b4d57838290600052602060002090600702016040518060e001604052908160008201805461075090611334565b80601f016020809104026020016040519081016040528092919081815260200182805461077c90611334565b80156107c95780601f1061079e576101008083540402835291602001916107c9565b820191906000526020600020905b8154815290600101906020018083116107ac57829003601f168201915b505050505081526020016001820180546107e290611334565b80601f016020809104026020016040519081016040528092919081815260200182805461080e90611334565b801561085b5780601f106108305761010080835404028352916020019161085b565b820191906000526020600020905b81548152906001019060200180831161083e57829003601f168201915b5050505050815260200160028201805461087490611334565b80601f01602080910402602001604051908101604052809291908181526020018280546108a090611334565b80156108ed5780601f106108c2576101008083540402835291602001916108ed565b820191906000526020600020905b8154815290600101906020018083116108d057829003601f168201915b5050505050815260200160038201805461090690611334565b80601f016020809104026020016040519081016040528092919081815260200182805461093290611334565b801561097f5780601f106109545761010080835404028352916020019161097f565b820191906000526020600020905b81548152906001019060200180831161096257829003601f168201915b5050505050815260200160048201805461099890611334565b80601f01602080910402602001604051908101604052809291908181526020018280546109c490611334565b8015610a115780601f106109e657610100808354040283529160200191610a11565b820191906000526020600020905b8154815290600101906020018083116109f457829003601f168201915b50505050508152602001600582018054610a2a90611334565b80601f0160208091040260200160405190810160405280929190818152602001828054610a5690611334565b8015610aa35780601f10610a7857610100808354040283529160200191610aa3565b820191906000526020600020905b815481529060010190602001808311610a8657829003601f168201915b50505050508152602001600682018054610abc90611334565b80601f0160208091040260200160405190810160405280929190818152602001828054610ae890611334565b8015610b355780601f10610b0a57610100808354040283529160200191610b35565b820191906000526020600020905b815481529060010190602001808311610b1857829003601f168201915b5050505050815250508152602001906001019061071d565b50505050905090565b600080600090505b6000805490508160ff161015610c045782604051602001610b7f919061164e565b6040516020818303038152906040528051906020012060008260ff1681548110610bac57610bab6115e3565b5b9060005260206000209060070201600001604051602001610bcd91906116e8565b6040516020818303038152906040528051906020012003610bf15780915050610c0a565b8080610bfc9061173b565b915050610b5e565b50600090505b919050565b6000604051905090565b600080fd5b600080fd5b600080fd5b600080fd5b6000601f19601f8301169050919050565b7f4e487b7100000000000000000000000000000000000000000000000000000000600052604160045260246000fd5b610c7682610c2d565b810181811067ffffffffffffffff82111715610c9557610c94610c3e565b5b80604052505050565b6000610ca8610c0f565b9050610cb48282610c6d565b919050565b600067ffffffffffffffff821115610cd457610cd3610c3e565b5b610cdd82610c2d565b9050602081019050919050565b82818337600083830152505050565b6000610d0c610d0784610cb9565b610c9e565b905082815260208101848484011115610d2857610d27610c28565b5b610d33848285610cea565b509392505050565b600082601f830112610d5057610d4f610c23565b5b8135610d60848260208601610cf9565b91505092915050565b600080600080600060a08688031215610d8557610d84610c19565b5b600086013567ffffffffffffffff811115610da357610da2610c1e565b5b610daf88828901610d3b565b955050602086013567ffffffffffffffff811115610dd057610dcf610c1e565b5b610ddc88828901610d3b565b945050604086013567ffffffffffffffff811115610dfd57610dfc610c1e565b5b610e0988828901610d3b565b935050606086013567ffffffffffffffff811115610e2a57610e29610c1e565b5b610e3688828901610d3b565b925050608086013567ffffffffffffffff811115610e5757610e56610c1e565b5b610e6388828901610d3b565b9150509295509295909350565b60008060408385031215610e8757610e86610c19565b5b600083013567ffffffffffffffff811115610ea557610ea4610c1e565b5b610eb185828601610d3b565b925050602083013567ffffffffffffffff811115610ed257610ed1610c1e565b5b610ede85828601610d3b565b9150509250929050565b600080600060608486031215610f0157610f00610c19565b5b600084013567ffffffffffffffff811115610f1f57610f1e610c1e565b5b610f2b86828701610d3b565b935050602084013567ffffffffffffffff811115610f4c57610f4b610c1e565b5b610f5886828701610d3b565b925050604084013567ffffffffffffffff811115610f7957610f78610c1e565b5b610f8586828701610d3b565b9150509250925092565b6000819050919050565b610fa281610f8f565b8114610fad57600080fd5b50565b600081359050610fbf81610f99565b92915050565b600060208284031215610fdb57610fda610c19565b5b6000610fe984828501610fb0565b91505092915050565b600081519050919050565b600082825260208201905092915050565b60005b8381101561102c578082015181840152602081019050611011565b60008484015250505050565b600061104382610ff2565b61104d8185610ffd565b935061105d81856020860161100e565b61106681610c2d565b840191505092915050565b600060e082019050818103600083015261108b818a611038565b9050818103602083015261109f8189611038565b905081810360408301526110b38188611038565b905081810360608301526110c78187611038565b905081810360808301526110db8186611038565b905081810360a08301526110ef8185611038565b905081810360c08301526111038184611038565b905098975050505050505050565b600081519050919050565b600082825260208201905092915050565b6000819050602082019050919050565b600082825260208201905092915050565b600061115982610ff2565b611163818561113d565b935061117381856020860161100e565b61117c81610c2d565b840191505092915050565b600060e08301600083015184820360008601526111a4828261114e565b915050602083015184820360208601526111be828261114e565b915050604083015184820360408601526111d8828261114e565b915050606083015184820360608601526111f2828261114e565b9150506080830151848203608086015261120c828261114e565b91505060a083015184820360a0860152611226828261114e565b91505060c083015184820360c0860152611240828261114e565b9150508091505092915050565b60006112598383611187565b905092915050565b6000602082019050919050565b600061127982611111565b611283818561111c565b9350836020820285016112958561112d565b8060005b858110156112d157848403895281516112b2858261124d565b94506112bd83611261565b925060208a01995050600181019050611299565b50829750879550505050505092915050565b600060208201905081810360008301526112fd818461126e565b905092915050565b7f4e487b7100000000000000000000000000000000000000000000000000000000600052602260045260246000fd5b6000600282049050600182168061134c57607f821691505b60208210810361135f5761135e611305565b5b50919050565b60008190508160005260206000209050919050565b60006020601f8301049050919050565b600082821b905092915050565b6000600883026113c77fffffffffffffffffffffffffffffffffffffffffffffffffffffffffffffffff8261138a565b6113d1868361138a565b95508019841693508086168417925050509392505050565b6000819050919050565b600061140e61140961140484610f8f565b6113e9565b610f8f565b9050919050565b6000819050919050565b611428836113f3565b61143c61143482611415565b848454611397565b825550505050565b600090565b611451611444565b61145c81848461141f565b505050565b5b8181101561148057611475600082611449565b600181019050611462565b5050565b601f8211156114c55761149681611365565b61149f8461137a565b810160208510156114ae578190505b6114c26114ba8561137a565b830182611461565b50505b505050565b600082821c905092915050565b60006114e8600019846008026114ca565b1980831691505092915050565b600061150183836114d7565b9150826002028217905092915050565b61151a82610ff2565b67ffffffffffffffff81111561153357611532610c3e565b5b61153d8254611334565b611548828285611484565b600060209050601f83116001811461157b5760008415611569578287015190505b61157385826114f5565b8655506115db565b601f19841661158986611365565b60005b828110156115b15784890151825560018201915060208501945060208101905061158c565b868310156115ce57848901516115ca601f8916826114d7565b8355505b6001600288020188555050505b505050505050565b7f4e487b7100000000000000000000000000000000000000000000000000000000600052603260045260246000fd5b600081905092915050565b600061162882610ff2565b6116328185611612565b935061164281856020860161100e565b80840191505092915050565b600061165a828461161d565b915081905092915050565b6000815461167281611334565b61167c8186611612565b9450600182166000811461169757600181146116ac576116df565b60ff19831686528115158202860193506116df565b6116b585611365565b60005b838110156116d7578154818901526001820191506020810190506116b8565b838801955050505b50505092915050565b60006116f48284611665565b915081905092915050565b7f4e487b7100000000000000000000000000000000000000000000000000000000600052601160045260246000fd5b600060ff82169050919050565b60006117468261172e565b915060ff8203611759576117586116ff565b5b60018201905091905056fea264697066735822122053fdf4c08c3643e600909fe65b1efc09ff07918c7430eedcfb802c619683068764736f6c63430008130033","opcodes":"PUSH1 0x80 PUSH1 0x40 MSTORE CALLVALUE DUP1 ISZERO PUSH2 0x10 JUMPI PUSH1 0x0 DUP1 REVERT JUMPDEST POP PUSH2 0x179A DUP1 PUSH2 0x20 PUSH1 0x0 CODECOPY PUSH1 0x0 RETURN INVALID PUSH1 0x80 PUSH1 0x40 MSTORE PUSH1 0x4 CALLDATASIZE LT PUSH2 0x4E JUMPI PUSH1 0x0 CALLDATALOAD PUSH1 0xE0 SHR DUP1 PUSH4 0x2BDFF69B EQ PUSH2 0xB1 JUMPI DUP1 PUSH4 0x49D9BF59 EQ PUSH2 0xDA JUMPI DUP1 PUSH4 0x6BBDB899 EQ PUSH2 0x103 JUMPI DUP1 PUSH4 0x7CFA762C EQ PUSH2 0x12C JUMPI DUP1 PUSH4 0xBC0C8F73 EQ PUSH2 0x16F JUMPI PUSH2 0x82 JUMP JUMPDEST CALLDATASIZE PUSH2 0x82 JUMPI CALLVALUE PUSH32 0xA34E3D4F1E6B837DBCE1011B61499FA1A483A0ABEE6A7A6697660B4B2D97132 PUSH1 0x40 MLOAD PUSH1 0x40 MLOAD DUP1 SWAP2 SUB SWAP1 LOG2 STOP JUMPDEST CALLVALUE PUSH32 0xA34E3D4F1E6B837DBCE1011B61499FA1A483A0ABEE6A7A6697660B4B2D97132 PUSH1 0x40 MLOAD PUSH1 0x40 MLOAD DUP1 SWAP2 SUB SWAP1 LOG2 STOP JUMPDEST CALLVALUE DUP1 ISZERO PUSH2 0xBD JUMPI PUSH1 0x0 DUP1 REVERT JUMPDEST POP PUSH2 0xD8 PUSH1 0x4 DUP1 CALLDATASIZE SUB DUP2 ADD SWAP1 PUSH2 0xD3 SWAP2 SWAP1 PUSH2 0xD69 JUMP JUMPDEST PUSH2 0x19A JUMP JUMPDEST STOP JUMPDEST CALLVALUE DUP1 ISZERO PUSH2 0xE6 JUMPI PUSH1 0x0 DUP1 REVERT JUMPDEST POP PUSH2 0x101 PUSH1 0x4 DUP1 CALLDATASIZE SUB DUP2 ADD SWAP1 PUSH2 0xFC SWAP2 SWAP1 PUSH2 0xE70 JUMP JUMPDEST PUSH2 0x242 JUMP JUMPDEST STOP JUMPDEST CALLVALUE DUP1 ISZERO PUSH2 0x10F JUMPI PUSH1 0x0 DUP1 REVERT JUMPDEST POP PUSH2 0x12A PUSH1 0x4 DUP1 CALLDATASIZE SUB DUP2 ADD SWAP1 PUSH2 0x125 SWAP2 SWAP1 PUSH2 0xEE8 JUMP JUMPDEST PUSH2 0x28F JUMP JUMPDEST STOP JUMPDEST CALLVALUE DUP1 ISZERO PUSH2 0x138 JUMPI PUSH1 0x0 DUP1 REVERT JUMPDEST POP PUSH2 0x153 PUSH1 0x4 DUP1 CALLDATASIZE SUB DUP2 ADD SWAP1 PUSH2 0x14E SWAP2 SWAP1 PUSH2 0xFC5 JUMP JUMPDEST PUSH2 0x2EF JUMP JUMPDEST PUSH1 0x40 MLOAD PUSH2 0x166 SWAP8 SWAP7 SWAP6 SWAP5 SWAP4 SWAP3 SWAP2 SWAP1 PUSH2 0x1071 JUMP JUMPDEST PUSH1 0x40 MLOAD DUP1 SWAP2 SUB SWAP1 RETURN JUMPDEST CALLVALUE DUP1 ISZERO PUSH2 0x17B JUMPI PUSH1 0x0 DUP1 REVERT JUMPDEST POP PUSH2 0x184 PUSH2 0x6F9 JUMP JUMPDEST PUSH1 0x40 MLOAD PUSH2 0x191 SWAP2 SWAP1 PUSH2 0x12E3 JUMP JUMPDEST PUSH1 0x40 MLOAD DUP1 SWAP2 SUB SWAP1 RETURN JUMPDEST PUSH1 0x0 DUP1 PUSH1 0x1 DUP2 PUSH1 0x1 DUP2 SLOAD ADD DUP1 DUP3 SSTORE DUP1 SWAP2 POP POP SUB SWAP1 PUSH1 0x0 MSTORE PUSH1 0x20 PUSH1 0x0 KECCAK256 SWAP1 PUSH1 0x7 MUL ADD SWAP1 POP DUP6 DUP6 DUP6 DUP6 DUP6 DUP6 PUSH1 0x0 ADD PUSH1 0x0 DUP8 PUSH1 0x1 ADD PUSH1 0x0 DUP10 PUSH1 0x2 ADD PUSH1 0x0 DUP12 PUSH1 0x3 ADD PUSH1 0x0 DUP14 PUSH1 0x4 ADD PUSH1 0x0 DUP11 SWAP2 SWAP1 POP SWAP1 DUP2 PUSH2 0x1F0 SWAP2 SWAP1 PUSH2 0x1511 JUMP JUMPDEST POP DUP10 SWAP2 SWAP1 POP SWAP1 DUP2 PUSH2 0x201 SWAP2 SWAP1 PUSH2 0x1511 JUMP JUMPDEST POP DUP9 SWAP2 SWAP1 POP SWAP1 DUP2 PUSH2 0x212 SWAP2 SWAP1 PUSH2 0x1511 JUMP JUMPDEST POP DUP8 SWAP2 SWAP1 POP SWAP1 DUP2 PUSH2 0x223 SWAP2 SWAP1 PUSH2 0x1511 JUMP JUMPDEST POP DUP7 SWAP2 SWAP1 POP SWAP1 DUP2 PUSH2 0x234 SWAP2 SWAP1 PUSH2 0x1511 JUMP JUMPDEST POP POP POP POP POP POP POP POP POP POP POP POP JUMP JUMPDEST PUSH1 0x0 PUSH2 0x24D DUP3 PUSH2 0xB56 JUMP JUMPDEST SWAP1 POP PUSH1 0x0 DUP1 DUP3 PUSH1 0xFF AND DUP2 SLOAD DUP2 LT PUSH2 0x267 JUMPI PUSH2 0x266 PUSH2 0x15E3 JUMP JUMPDEST JUMPDEST SWAP1 PUSH1 0x0 MSTORE PUSH1 0x20 PUSH1 0x0 KECCAK256 SWAP1 PUSH1 0x7 MUL ADD SWAP1 POP DUP4 DUP2 PUSH1 0x5 ADD SWAP1 DUP2 PUSH2 0x288 SWAP2 SWAP1 PUSH2 0x1511 JUMP JUMPDEST POP POP POP POP POP JUMP JUMPDEST PUSH1 0x0 PUSH2 0x29A DUP4 PUSH2 0xB56 JUMP JUMPDEST SWAP1 POP PUSH1 0x0 DUP1 DUP3 PUSH1 0xFF AND DUP2 SLOAD DUP2 LT PUSH2 0x2B4 JUMPI PUSH2 0x2B3 PUSH2 0x15E3 JUMP JUMPDEST JUMPDEST SWAP1 PUSH1 0x0 MSTORE PUSH1 0x20 PUSH1 0x0 KECCAK256 SWAP1 PUSH1 0x7 MUL ADD SWAP1 POP DUP5 DUP2 PUSH1 0x6 ADD SWAP1 DUP2 PUSH2 0x2D5 SWAP2 SWAP1 PUSH2 0x1511 JUMP JUMPDEST POP DUP3 DUP2 PUSH1 0x5 ADD SWAP1 DUP2 PUSH2 0x2E7 SWAP2 SWAP1 PUSH2 0x1511 JUMP JUMPDEST POP POP POP POP POP POP JUMP JUMPDEST PUSH1 0x0 DUP2 DUP2 SLOAD DUP2 LT PUSH2 0x2FF JUMPI PUSH1 0x0 DUP1 REVERT JUMPDEST SWAP1 PUSH1 0x0 MSTORE PUSH1 0x20 PUSH1 0x0 KECCAK256 SWAP1 PUSH1 0x7 MUL ADD PUSH1 0x0 SWAP2 POP SWAP1 POP DUP1 PUSH1 0x0 ADD DUP1 SLOAD PUSH2 0x322 SWAP1 PUSH2 0x1334 JUMP JUMPDEST DUP1 PUSH1 0x1F ADD PUSH1 0x20 DUP1 SWAP2 DIV MUL PUSH1 0x20 ADD PUSH1 0x40 MLOAD SWAP1 DUP2 ADD PUSH1 0x40 MSTORE DUP1 SWAP3 SWAP2 SWAP1 DUP2 DUP2 MSTORE PUSH1 0x20 ADD DUP3 DUP1 SLOAD PUSH2 0x34E SWAP1 PUSH2 0x1334 JUMP JUMPDEST DUP1 ISZERO PUSH2 0x39B JUMPI DUP1 PUSH1 0x1F LT PUSH2 0x370 JUMPI PUSH2 0x100 DUP1 DUP4 SLOAD DIV MUL DUP4 MSTORE SWAP2 PUSH1 0x20 ADD SWAP2 PUSH2 0x39B JUMP JUMPDEST DUP3 ADD SWAP2 SWAP1 PUSH1 0x0 MSTORE PUSH1 0x20 PUSH1 0x0 KECCAK256 SWAP1 JUMPDEST DUP2 SLOAD DUP2 MSTORE SWAP1 PUSH1 0x1 ADD SWAP1 PUSH1 0x20 ADD DUP1 DUP4 GT PUSH2 0x37E JUMPI DUP3 SWAP1 SUB PUSH1 0x1F AND DUP3 ADD SWAP2 JUMPDEST POP POP POP POP POP SWAP1 DUP1 PUSH1 0x1 ADD DUP1 SLOAD PUSH2 0x3B0 SWAP1 PUSH2 0x1334 JUMP JUMPDEST DUP1 PUSH1 0x1F ADD PUSH1 0x20 DUP1 SWAP2 DIV MUL PUSH1 0x20 ADD PUSH1 0x40 MLOAD SWAP1 DUP2 ADD PUSH1 0x40 MSTORE DUP1 SWAP3 SWAP2 SWAP1 DUP2 DUP2 MSTORE PUSH1 0x20 ADD DUP3 DUP1 SLOAD PUSH2 0x3DC SWAP1 PUSH2 0x1334 JUMP JUMPDEST DUP1 ISZERO PUSH2 0x429 JUMPI DUP1 PUSH1 0x1F LT PUSH2 0x3FE JUMPI PUSH2 0x100 DUP1 DUP4 SLOAD DIV MUL DUP4 MSTORE SWAP2 PUSH1 0x20 ADD SWAP2 PUSH2 0x429 JUMP JUMPDEST DUP3 ADD SWAP2 SWAP1 PUSH1 0x0 MSTORE PUSH1 0x20 PUSH1 0x0 KECCAK256 SWAP1 JUMPDEST DUP2 SLOAD DUP2 MSTORE SWAP1 PUSH1 0x1 ADD SWAP1 PUSH1 0x20 ADD DUP1 DUP4 GT PUSH2 0x40C JUMPI DUP3 SWAP1 SUB PUSH1 0x1F AND DUP3 ADD SWAP2 JUMPDEST POP POP POP POP POP SWAP1 DUP1 PUSH1 0x2 ADD DUP1 SLOAD PUSH2 0x43E SWAP1 PUSH2 0x1334 JUMP JUMPDEST DUP1 PUSH1 0x1F ADD PUSH1 0x20 DUP1 SWAP2 DIV MUL PUSH1 0x20 ADD PUSH1 0x40 MLOAD SWAP1 DUP2 ADD PUSH1 0x40 MSTORE DUP1 SWAP3 SWAP2 SWAP1 DUP2 DUP2 MSTORE PUSH1 0x20 ADD DUP3 DUP1 SLOAD PUSH2 0x46A SWAP1 PUSH2 0x1334 JUMP JUMPDEST DUP1 ISZERO PUSH2 0x4B7 JUMPI DUP1 PUSH1 0x1F LT PUSH2 0x48C JUMPI PUSH2 0x100 DUP1 DUP4 SLOAD DIV MUL DUP4 MSTORE SWAP2 PUSH1 0x20 ADD SWAP2 PUSH2 0x4B7 JUMP JUMPDEST DUP3 ADD SWAP2 SWAP1 PUSH1 0x0 MSTORE PUSH1 0x20 PUSH1 0x0 KECCAK256 SWAP1 JUMPDEST DUP2 SLOAD DUP2 MSTORE SWAP1 PUSH1 0x1 ADD SWAP1 PUSH1 0x20 ADD DUP1 DUP4 GT PUSH2 0x49A JUMPI DUP3 SWAP1 SUB PUSH1 0x1F AND DUP3 ADD SWAP2 JUMPDEST POP POP POP POP POP SWAP1 DUP1 PUSH1 0x3 ADD DUP1 SLOAD PUSH2 0x4CC SWAP1 PUSH2 0x1334 JUMP JUMPDEST DUP1 PUSH1 0x1F ADD PUSH1 0x20 DUP1 SWAP2 DIV MUL PUSH1 0x20 ADD PUSH1 0x40 MLOAD SWAP1 DUP2 ADD PUSH1 0x40 MSTORE DUP1 SWAP3 SWAP2 SWAP1 DUP2 DUP2 MSTORE PUSH1 0x20 ADD DUP3 DUP1 SLOAD PUSH2 0x4F8 SWAP1 PUSH2 0x1334 JUMP JUMPDEST DUP1 ISZERO PUSH2 0x545 JUMPI DUP1 PUSH1 0x1F LT PUSH2 0x51A JUMPI PUSH2 0x100 DUP1 DUP4 SLOAD DIV MUL DUP4 MSTORE SWAP2 PUSH1 0x20 ADD SWAP2 PUSH2 0x545 JUMP JUMPDEST DUP3 ADD SWAP2 SWAP1 PUSH1 0x0 MSTORE PUSH1 0x20 PUSH1 0x0 KECCAK256 SWAP1 JUMPDEST DUP2 SLOAD DUP2 MSTORE SWAP1 PUSH1 0x1 ADD SWAP1 PUSH1 0x20 ADD DUP1 DUP4 GT PUSH2 0x528 JUMPI DUP3 SWAP1 SUB PUSH1 0x1F AND DUP3 ADD SWAP2 JUMPDEST POP POP POP POP POP SWAP1 DUP1 PUSH1 0x4 ADD DUP1 SLOAD PUSH2 0x55A SWAP1 PUSH2 0x1334 JUMP JUMPDEST DUP1 PUSH1 0x1F ADD PUSH1 0x20 DUP1 SWAP2 DIV MUL PUSH1 0x20 ADD PUSH1 0x40 MLOAD SWAP1 DUP2 ADD PUSH1 0x40 MSTORE DUP1 SWAP3 SWAP2 SWAP1 DUP2 DUP2 MSTORE PUSH1 0x20 ADD DUP3 DUP1 SLOAD PUSH2 0x586 SWAP1 PUSH2 0x1334 JUMP JUMPDEST DUP1 ISZERO PUSH2 0x5D3 JUMPI DUP1 PUSH1 0x1F LT PUSH2 0x5A8 JUMPI PUSH2 0x100 DUP1 DUP4 SLOAD DIV MUL DUP4 MSTORE SWAP2 PUSH1 0x20 ADD SWAP2 PUSH2 0x5D3 JUMP JUMPDEST DUP3 ADD SWAP2 SWAP1 PUSH1 0x0 MSTORE PUSH1 0x20 PUSH1 0x0 KECCAK256 SWAP1 JUMPDEST DUP2 SLOAD DUP2 MSTORE SWAP1 PUSH1 0x1 ADD SWAP1 PUSH1 0x20 ADD DUP1 DUP4 GT PUSH2 0x5B6 JUMPI DUP3 SWAP1 SUB PUSH1 0x1F AND DUP3 ADD SWAP2 JUMPDEST POP POP POP POP POP SWAP1 DUP1 PUSH1 0x5 ADD DUP1 SLOAD PUSH2 0x5E8 SWAP1 PUSH2 0x1334 JUMP JUMPDEST DUP1 PUSH1 0x1F ADD PUSH1 0x20 DUP1 SWAP2 DIV MUL PUSH1 0x20 ADD PUSH1 0x40 MLOAD SWAP1 DUP2 ADD PUSH1 0x40 MSTORE DUP1 SWAP3 SWAP2 SWAP1 DUP2 DUP2 MSTORE PUSH1 0x20 ADD DUP3 DUP1 SLOAD PUSH2 0x614 SWAP1 PUSH2 0x1334 JUMP JUMPDEST DUP1 ISZERO PUSH2 0x661 JUMPI DUP1 PUSH1 0x1F LT PUSH2 0x636 JUMPI PUSH2 0x100 DUP1 DUP4 SLOAD DIV MUL DUP4 MSTORE SWAP2 PUSH1 0x20 ADD SWAP2 PUSH2 0x661 JUMP JUMPDEST DUP3 ADD SWAP2 SWAP1 PUSH1 0x0 MSTORE PUSH1 0x20 PUSH1 0x0 KECCAK256 SWAP1 JUMPDEST DUP2 SLOAD DUP2 MSTORE SWAP1 PUSH1 0x1 ADD SWAP1 PUSH1 0x20 ADD DUP1 DUP4 GT PUSH2 0x644 JUMPI DUP3 SWAP1 SUB PUSH1 0x1F AND DUP3 ADD SWAP2 JUMPDEST POP POP POP POP POP SWAP1 DUP1 PUSH1 0x6 ADD DUP1 SLOAD PUSH2 0x676 SWAP1 PUSH2 0x1334 JUMP JUMPDEST DUP1 PUSH1 0x1F ADD PUSH1 0x20 DUP1 SWAP2 DIV MUL PUSH1 0x20 ADD PUSH1 0x40 MLOAD SWAP1 DUP2 ADD PUSH1 0x40 MSTORE DUP1 SWAP3 SWAP2 SWAP1 DUP2 DUP2 MSTORE PUSH1 0x20 ADD DUP3 DUP1 SLOAD PUSH2 0x6A2 SWAP1 PUSH2 0x1334 JUMP JUMPDEST DUP1 ISZERO PUSH2 0x6EF JUMPI DUP1 PUSH1 0x1F LT PUSH2 0x6C4 JUMPI PUSH2 0x100 DUP1 DUP4 SLOAD DIV MUL DUP4 MSTORE SWAP2 PUSH1 0x20 ADD SWAP2 PUSH2 0x6EF JUMP JUMPDEST DUP3 ADD SWAP2 SWAP1 PUSH1 0x0 MSTORE PUSH1 0x20 PUSH1 0x0 KECCAK256 SWAP1 JUMPDEST DUP2 SLOAD DUP2 MSTORE SWAP1 PUSH1 0x1 ADD SWAP1 PUSH1 0x20 ADD DUP1 DUP4 GT PUSH2 0x6D2 JUMPI DUP3 SWAP1 SUB PUSH1 0x1F AND DUP3 ADD SWAP2 JUMPDEST POP POP POP POP POP SWAP1 POP DUP8 JUMP JUMPDEST PUSH1 0x60 PUSH1 0x0 DUP1 SLOAD DUP1 PUSH1 0x20 MUL PUSH1 0x20 ADD PUSH1 0x40 MLOAD SWAP1 DUP2 ADD PUSH1 0x40 MSTORE DUP1 SWAP3 SWAP2 SWAP1 DUP2 DUP2 MSTORE PUSH1 0x20 ADD PUSH1 0x0 SWAP1 JUMPDEST DUP3 DUP3 LT ISZERO PUSH2 0xB4D JUMPI DUP4 DUP3 SWAP1 PUSH1 0x0 MSTORE PUSH1 0x20 PUSH1 0x0 KECCAK256 SWAP1 PUSH1 0x7 MUL ADD PUSH1 0x40 MLOAD DUP1 PUSH1 0xE0 ADD PUSH1 0x40 MSTORE SWAP1 DUP2 PUSH1 0x0 DUP3 ADD DUP1 SLOAD PUSH2 0x750 SWAP1 PUSH2 0x1334 JUMP JUMPDEST DUP1 PUSH1 0x1F ADD PUSH1 0x20 DUP1 SWAP2 DIV MUL PUSH1 0x20 ADD PUSH1 0x40 MLOAD SWAP1 DUP2 ADD PUSH1 0x40 MSTORE DUP1 SWAP3 SWAP2 SWAP1 DUP2 DUP2 MSTORE PUSH1 0x20 ADD DUP3 DUP1 SLOAD PUSH2 0x77C SWAP1 PUSH2 0x1334 JUMP JUMPDEST DUP1 ISZERO PUSH2 0x7C9 JUMPI DUP1 PUSH1 0x1F LT PUSH2 0x79E JUMPI PUSH2 0x100 DUP1 DUP4 SLOAD DIV MUL DUP4 MSTORE SWAP2 PUSH1 0x20 ADD SWAP2 PUSH2 0x7C9 JUMP JUMPDEST DUP3 ADD SWAP2 SWAP1 PUSH1 0x0 MSTORE PUSH1 0x20 PUSH1 0x0 KECCAK256 SWAP1 JUMPDEST DUP2 SLOAD DUP2 MSTORE SWAP1 PUSH1 0x1 ADD SWAP1 PUSH1 0x20 ADD DUP1 DUP4 GT PUSH2 0x7AC JUMPI DUP3 SWAP1 SUB PUSH1 0x1F AND DUP3 ADD SWAP2 JUMPDEST POP POP POP POP POP DUP2 MSTORE PUSH1 0x20 ADD PUSH1 0x1 DUP3 ADD DUP1 SLOAD PUSH2 0x7E2 SWAP1 PUSH2 0x1334 JUMP JUMPDEST DUP1 PUSH1 0x1F ADD PUSH1 0x20 DUP1 SWAP2 DIV MUL PUSH1 0x20 ADD PUSH1 0x40 MLOAD SWAP1 DUP2 ADD PUSH1 0x40 MSTORE DUP1 SWAP3 SWAP2 SWAP1 DUP2 DUP2 MSTORE PUSH1 0x20 ADD DUP3 DUP1 SLOAD PUSH2 0x80E SWAP1 PUSH2 0x1334 JUMP JUMPDEST DUP1 ISZERO PUSH2 0x85B JUMPI DUP1 PUSH1 0x1F LT PUSH2 0x830 JUMPI PUSH2 0x100 DUP1 DUP4 SLOAD DIV MUL DUP4 MSTORE SWAP2 PUSH1 0x20 ADD SWAP2 PUSH2 0x85B JUMP JUMPDEST DUP3 ADD SWAP2 SWAP1 PUSH1 0x0 MSTORE PUSH1 0x20 PUSH1 0x0 KECCAK256 SWAP1 JUMPDEST DUP2 SLOAD DUP2 MSTORE SWAP1 PUSH1 0x1 ADD SWAP1 PUSH1 0x20 ADD DUP1 DUP4 GT PUSH2 0x83E JUMPI DUP3 SWAP1 SUB PUSH1 0x1F AND DUP3 ADD SWAP2 JUMPDEST POP POP POP POP POP DUP2 MSTORE PUSH1 0x20 ADD PUSH1 0x2 DUP3 ADD DUP1 SLOAD PUSH2 0x874 SWAP1 PUSH2 0x1334 JUMP JUMPDEST DUP1 PUSH1 0x1F ADD PUSH1 0x20 DUP1 SWAP2 DIV MUL PUSH1 0x20 ADD PUSH1 0x40 MLOAD SWAP1 DUP2 ADD PUSH1 0x40 MSTORE DUP1 SWAP3 SWAP2 SWAP1 DUP2 DUP2 MSTORE PUSH1 0x20 ADD DUP3 DUP1 SLOAD PUSH2 0x8A0 SWAP1 PUSH2 0x1334 JUMP JUMPDEST DUP1 ISZERO PUSH2 0x8ED JUMPI DUP1 PUSH1 0x1F LT PUSH2 0x8C2 JUMPI PUSH2 0x100 DUP1 DUP4 SLOAD DIV MUL DUP4 MSTORE SWAP2 PUSH1 0x20 ADD SWAP2 PUSH2 0x8ED JUMP JUMPDEST DUP3 ADD SWAP2 SWAP1 PUSH1 0x0 MSTORE PUSH1 0x20 PUSH1 0x0 KECCAK256 SWAP1 JUMPDEST DUP2 SLOAD DUP2 MSTORE SWAP1 PUSH1 0x1 ADD SWAP1 PUSH1 0x20 ADD DUP1 DUP4 GT PUSH2 0x8D0 JUMPI DUP3 SWAP1 SUB PUSH1 0x1F AND DUP3 ADD SWAP2 JUMPDEST POP POP POP POP POP DUP2 MSTORE PUSH1 0x20 ADD PUSH1 0x3 DUP3 ADD DUP1 SLOAD PUSH2 0x906 SWAP1 PUSH2 0x1334 JUMP JUMPDEST DUP1 PUSH1 0x1F ADD PUSH1 0x20 DUP1 SWAP2 DIV MUL PUSH1 0x20 ADD PUSH1 0x40 MLOAD SWAP1 DUP2 ADD PUSH1 0x40 MSTORE DUP1 SWAP3 SWAP2 SWAP1 DUP2 DUP2 MSTORE PUSH1 0x20 ADD DUP3 DUP1 SLOAD PUSH2 0x932 SWAP1 PUSH2 0x1334 JUMP JUMPDEST DUP1 ISZERO PUSH2 0x97F JUMPI DUP1 PUSH1 0x1F LT PUSH2 0x954 JUMPI PUSH2 0x100 DUP1 DUP4 SLOAD DIV MUL DUP4 MSTORE SWAP2 PUSH1 0x20 ADD SWAP2 PUSH2 0x97F JUMP JUMPDEST DUP3 ADD SWAP2 SWAP1 PUSH1 0x0 MSTORE PUSH1 0x20 PUSH1 0x0 KECCAK256 SWAP1 JUMPDEST DUP2 SLOAD DUP2 MSTORE SWAP1 PUSH1 0x1 ADD SWAP1 PUSH1 0x20 ADD DUP1 DUP4 GT PUSH2 0x962 JUMPI DUP3 SWAP1 SUB PUSH1 0x1F AND DUP3 ADD SWAP2 JUMPDEST POP POP POP POP POP DUP2 MSTORE PUSH1 0x20 ADD PUSH1 0x4 DUP3 ADD DUP1 SLOAD PUSH2 0x998 SWAP1 PUSH2 0x1334 JUMP JUMPDEST DUP1 PUSH1 0x1F ADD PUSH1 0x20 DUP1 SWAP2 DIV MUL PUSH1 0x20 ADD PUSH1 0x40 MLOAD SWAP1 DUP2 ADD PUSH1 0x40 MSTORE DUP1 SWAP3 SWAP2 SWAP1 DUP2 DUP2 MSTORE PUSH1 0x20 ADD DUP3 DUP1 SLOAD PUSH2 0x9C4 SWAP1 PUSH2 0x1334 JUMP JUMPDEST DUP1 ISZERO PUSH2 0xA11 JUMPI DUP1 PUSH1 0x1F LT PUSH2 0x9E6 JUMPI PUSH2 0x100 DUP1 DUP4 SLOAD DIV MUL DUP4 MSTORE SWAP2 PUSH1 0x20 ADD SWAP2 PUSH2 0xA11 JUMP JUMPDEST DUP3 ADD SWAP2 SWAP1 PUSH1 0x0 MSTORE PUSH1 0x20 PUSH1 0x0 KECCAK256 SWAP1 JUMPDEST DUP2 SLOAD DUP2 MSTORE SWAP1 PUSH1 0x1 ADD SWAP1 PUSH1 0x20 ADD DUP1 DUP4 GT PUSH2 0x9F4 JUMPI DUP3 SWAP1 SUB PUSH1 0x1F AND DUP3 ADD SWAP2 JUMPDEST POP POP POP POP POP DUP2 MSTORE PUSH1 0x20 ADD PUSH1 0x5 DUP3 ADD DUP1 SLOAD PUSH2 0xA2A SWAP1 PUSH2 0x1334 JUMP JUMPDEST DUP1 PUSH1 0x1F ADD PUSH1 0x20 DUP1 SWAP2 DIV MUL PUSH1 0x20 ADD PUSH1 0x40 MLOAD SWAP1 DUP2 ADD PUSH1 0x40 MSTORE DUP1 SWAP3 SWAP2 SWAP1 DUP2 DUP2 MSTORE PUSH1 0x20 ADD DUP3 DUP1 SLOAD PUSH2 0xA56 SWAP1 PUSH2 0x1334 JUMP JUMPDEST DUP1 ISZERO PUSH2 0xAA3 JUMPI DUP1 PUSH1 0x1F LT PUSH2 0xA78 JUMPI PUSH2 0x100 DUP1 DUP4 SLOAD DIV MUL DUP4 MSTORE SWAP2 PUSH1 0x20 ADD SWAP2 PUSH2 0xAA3 JUMP JUMPDEST DUP3 ADD SWAP2 SWAP1 PUSH1 0x0 MSTORE PUSH1 0x20 PUSH1 0x0 KECCAK256 SWAP1 JUMPDEST DUP2 SLOAD DUP2 MSTORE SWAP1 PUSH1 0x1 ADD SWAP1 PUSH1 0x20 ADD DUP1 DUP4 GT PUSH2 0xA86 JUMPI DUP3 SWAP1 SUB PUSH1 0x1F AND DUP3 ADD SWAP2 JUMPDEST POP POP POP POP POP DUP2 MSTORE PUSH1 0x20 ADD PUSH1 0x6 DUP3 ADD DUP1 SLOAD PUSH2 0xABC SWAP1 PUSH2 0x1334 JUMP JUMPDEST DUP1 PUSH1 0x1F ADD PUSH1 0x20 DUP1 SWAP2 DIV MUL PUSH1 0x20 ADD PUSH1 0x40 MLOAD SWAP1 DUP2 ADD PUSH1 0x40 MSTORE DUP1 SWAP3 SWAP2 SWAP1 DUP2 DUP2 MSTORE PUSH1 0x20 ADD DUP3 DUP1 SLOAD PUSH2 0xAE8 SWAP1 PUSH2 0x1334 JUMP JUMPDEST DUP1 ISZERO PUSH2 0xB35 JUMPI DUP1 PUSH1 0x1F LT PUSH2 0xB0A JUMPI PUSH2 0x100 DUP1 DUP4 SLOAD DIV MUL DUP4 MSTORE SWAP2 PUSH1 0x20 ADD SWAP2 PUSH2 0xB35 JUMP JUMPDEST DUP3 ADD SWAP2 SWAP1 PUSH1 0x0 MSTORE PUSH1 0x20 PUSH1 0x0 KECCAK256 SWAP1 JUMPDEST DUP2 SLOAD DUP2 MSTORE SWAP1 PUSH1 0x1 ADD SWAP1 PUSH1 0x20 ADD DUP1 DUP4 GT PUSH2 0xB18 JUMPI DUP3 SWAP1 SUB PUSH1 0x1F AND DUP3 ADD SWAP2 JUMPDEST POP POP POP POP POP DUP2 MSTORE POP POP DUP2 MSTORE PUSH1 0x20 ADD SWAP1 PUSH1 0x1 ADD SWAP1 PUSH2 0x71D JUMP JUMPDEST POP POP POP POP SWAP1 POP SWAP1 JUMP JUMPDEST PUSH1 0x0 DUP1 PUSH1 0x0 SWAP1 POP JUMPDEST PUSH1 0x0 DUP1 SLOAD SWAP1 POP DUP2 PUSH1 0xFF AND LT ISZERO PUSH2 0xC04 JUMPI DUP3 PUSH1 0x40 MLOAD PUSH1 0x20 ADD PUSH2 0xB7F SWAP2 SWAP1 PUSH2 0x164E JUMP JUMPDEST PUSH1 0x40 MLOAD PUSH1 0x20 DUP2 DUP4 SUB SUB DUP2 MSTORE SWAP1 PUSH1 0x40 MSTORE DUP1 MLOAD SWAP1 PUSH1 0x20 ADD KECCAK256 PUSH1 0x0 DUP3 PUSH1 0xFF AND DUP2 SLOAD DUP2 LT PUSH2 0xBAC JUMPI PUSH2 0xBAB PUSH2 0x15E3 JUMP JUMPDEST JUMPDEST SWAP1 PUSH1 0x0 MSTORE PUSH1 0x20 PUSH1 0x0 KECCAK256 SWAP1 PUSH1 0x7 MUL ADD PUSH1 0x0 ADD PUSH1 0x40 MLOAD PUSH1 0x20 ADD PUSH2 0xBCD SWAP2 SWAP1 PUSH2 0x16E8 JUMP JUMPDEST PUSH1 0x40 MLOAD PUSH1 0x20 DUP2 DUP4 SUB SUB DUP2 MSTORE SWAP1 PUSH1 0x40 MSTORE DUP1 MLOAD SWAP1 PUSH1 0x20 ADD KECCAK256 SUB PUSH2 0xBF1 JUMPI DUP1 SWAP2 POP POP PUSH2 0xC0A JUMP JUMPDEST DUP1 DUP1 PUSH2 0xBFC SWAP1 PUSH2 0x173B JUMP JUMPDEST SWAP2 POP POP PUSH2 0xB5E JUMP JUMPDEST POP PUSH1 0x0 SWAP1 POP JUMPDEST SWAP2 SWAP1 POP JUMP JUMPDEST PUSH1 0x0 PUSH1 0x40 MLOAD SWAP1 POP SWAP1 JUMP JUMPDEST PUSH1 0x0 DUP1 REVERT JUMPDEST PUSH1 0x0 DUP1 REVERT JUMPDEST PUSH1 0x0 DUP1 REVERT JUMPDEST PUSH1 0x0 DUP1 REVERT JUMPDEST PUSH1 0x0 PUSH1 0x1F NOT PUSH1 0x1F DUP4 ADD AND SWAP1 POP SWAP2 SWAP1 POP JUMP JUMPDEST PUSH32 0x4E487B7100000000000000000000000000000000000000000000000000000000 PUSH1 0x0 MSTORE PUSH1 0x41 PUSH1 0x4 MSTORE PUSH1 0x24 PUSH1 0x0 REVERT JUMPDEST PUSH2 0xC76 DUP3 PUSH2 0xC2D JUMP JUMPDEST DUP2 ADD DUP2 DUP2 LT PUSH8 0xFFFFFFFFFFFFFFFF DUP3 GT OR ISZERO PUSH2 0xC95 JUMPI PUSH2 0xC94 PUSH2 0xC3E JUMP JUMPDEST JUMPDEST DUP1 PUSH1 0x40 MSTORE POP POP POP JUMP JUMPDEST PUSH1 0x0 PUSH2 0xCA8 PUSH2 0xC0F JUMP JUMPDEST SWAP1 POP PUSH2 0xCB4 DUP3 DUP3 PUSH2 0xC6D JUMP JUMPDEST SWAP2 SWAP1 POP JUMP JUMPDEST PUSH1 0x0 PUSH8 0xFFFFFFFFFFFFFFFF DUP3 GT ISZERO PUSH2 0xCD4 JUMPI PUSH2 0xCD3 PUSH2 0xC3E JUMP JUMPDEST JUMPDEST PUSH2 0xCDD DUP3 PUSH2 0xC2D JUMP JUMPDEST SWAP1 POP PUSH1 0x20 DUP2 ADD SWAP1 POP SWAP2 SWAP1 POP JUMP JUMPDEST DUP3 DUP2 DUP4 CALLDATACOPY PUSH1 0x0 DUP4 DUP4 ADD MSTORE POP POP POP JUMP JUMPDEST PUSH1 0x0 PUSH2 0xD0C PUSH2 0xD07 DUP5 PUSH2 0xCB9 JUMP JUMPDEST PUSH2 0xC9E JUMP JUMPDEST SWAP1 POP DUP3 DUP2 MSTORE PUSH1 0x20 DUP2 ADD DUP5 DUP5 DUP5 ADD GT ISZERO PUSH2 0xD28 JUMPI PUSH2 0xD27 PUSH2 0xC28 JUMP JUMPDEST JUMPDEST PUSH2 0xD33 DUP5 DUP3 DUP6 PUSH2 0xCEA JUMP JUMPDEST POP SWAP4 SWAP3 POP POP POP JUMP JUMPDEST PUSH1 0x0 DUP3 PUSH1 0x1F DUP4 ADD SLT PUSH2 0xD50 JUMPI PUSH2 0xD4F PUSH2 0xC23 JUMP JUMPDEST JUMPDEST DUP2 CALLDATALOAD PUSH2 0xD60 DUP5 DUP3 PUSH1 0x20 DUP7 ADD PUSH2 0xCF9 JUMP JUMPDEST SWAP2 POP POP SWAP3 SWAP2 POP POP JUMP JUMPDEST PUSH1 0x0 DUP1 PUSH1 0x0 DUP1 PUSH1 0x0 PUSH1 0xA0 DUP7 DUP9 SUB SLT ISZERO PUSH2 0xD85 JUMPI PUSH2 0xD84 PUSH2 0xC19 JUMP JUMPDEST JUMPDEST PUSH1 0x0 DUP7 ADD CALLDATALOAD PUSH8 0xFFFFFFFFFFFFFFFF DUP2 GT ISZERO PUSH2 0xDA3 JUMPI PUSH2 0xDA2 PUSH2 0xC1E JUMP JUMPDEST JUMPDEST PUSH2 0xDAF DUP9 DUP3 DUP10 ADD PUSH2 0xD3B JUMP JUMPDEST SWAP6 POP POP PUSH1 0x20 DUP7 ADD CALLDATALOAD PUSH8 0xFFFFFFFFFFFFFFFF DUP2 GT ISZERO PUSH2 0xDD0 JUMPI PUSH2 0xDCF PUSH2 0xC1E JUMP JUMPDEST JUMPDEST PUSH2 0xDDC DUP9 DUP3 DUP10 ADD PUSH2 0xD3B JUMP JUMPDEST SWAP5 POP POP PUSH1 0x40 DUP7 ADD CALLDATALOAD PUSH8 0xFFFFFFFFFFFFFFFF DUP2 GT ISZERO PUSH2 0xDFD JUMPI PUSH2 0xDFC PUSH2 0xC1E JUMP JUMPDEST JUMPDEST PUSH2 0xE09 DUP9 DUP3 DUP10 ADD PUSH2 0xD3B JUMP JUMPDEST SWAP4 POP POP PUSH1 0x60 DUP7 ADD CALLDATALOAD PUSH8 0xFFFFFFFFFFFFFFFF DUP2 GT ISZERO PUSH2 0xE2A JUMPI PUSH2 0xE29 PUSH2 0xC1E JUMP JUMPDEST JUMPDEST PUSH2 0xE36 DUP9 DUP3 DUP10 ADD PUSH2 0xD3B JUMP JUMPDEST SWAP3 POP POP PUSH1 0x80 DUP7 ADD CALLDATALOAD PUSH8 0xFFFFFFFFFFFFFFFF DUP2 GT ISZERO PUSH2 0xE57 JUMPI PUSH2 0xE56 PUSH2 0xC1E JUMP JUMPDEST JUMPDEST PUSH2 0xE63 DUP9 DUP3 DUP10 ADD PUSH2 0xD3B JUMP JUMPDEST SWAP2 POP POP SWAP3 SWAP6 POP SWAP3 SWAP6 SWAP1 SWAP4 POP JUMP JUMPDEST PUSH1 0x0 DUP1 PUSH1 0x40 DUP4 DUP6 SUB SLT ISZERO PUSH2 0xE87 JUMPI PUSH2 0xE86 PUSH2 0xC19 JUMP JUMPDEST JUMPDEST PUSH1 0x0 DUP4 ADD CALLDATALOAD PUSH8 0xFFFFFFFFFFFFFFFF DUP2 GT ISZERO PUSH2 0xEA5 JUMPI PUSH2 0xEA4 PUSH2 0xC1E JUMP JUMPDEST JUMPDEST PUSH2 0xEB1 DUP6 DUP3 DUP7 ADD PUSH2 0xD3B JUMP JUMPDEST SWAP3 POP POP PUSH1 0x20 DUP4 ADD CALLDATALOAD PUSH8 0xFFFFFFFFFFFFFFFF DUP2 GT ISZERO PUSH2 0xED2 JUMPI PUSH2 0xED1 PUSH2 0xC1E JUMP JUMPDEST JUMPDEST PUSH2 0xEDE DUP6 DUP3 DUP7 ADD PUSH2 0xD3B JUMP JUMPDEST SWAP2 POP POP SWAP3 POP SWAP3 SWAP1 POP JUMP JUMPDEST PUSH1 0x0 DUP1 PUSH1 0x0 PUSH1 0x60 DUP5 DUP7 SUB SLT ISZERO PUSH2 0xF01 JUMPI PUSH2 0xF00 PUSH2 0xC19 JUMP JUMPDEST JUMPDEST PUSH1 0x0 DUP5 ADD CALLDATALOAD PUSH8 0xFFFFFFFFFFFFFFFF DUP2 GT ISZERO PUSH2 0xF1F JUMPI PUSH2 0xF1E PUSH2 0xC1E JUMP JUMPDEST JUMPDEST PUSH2 0xF2B DUP7 DUP3 DUP8 ADD PUSH2 0xD3B JUMP JUMPDEST SWAP4 POP POP PUSH1 0x20 DUP5 ADD CALLDATALOAD PUSH8 0xFFFFFFFFFFFFFFFF DUP2 GT ISZERO PUSH2 0xF4C JUMPI PUSH2 0xF4B PUSH2 0xC1E JUMP JUMPDEST JUMPDEST PUSH2 0xF58 DUP7 DUP3 DUP8 ADD PUSH2 0xD3B JUMP JUMPDEST SWAP3 POP POP PUSH1 0x40 DUP5 ADD CALLDATALOAD PUSH8 0xFFFFFFFFFFFFFFFF DUP2 GT ISZERO PUSH2 0xF79 JUMPI PUSH2 0xF78 PUSH2 0xC1E JUMP JUMPDEST JUMPDEST PUSH2 0xF85 DUP7 DUP3 DUP8 ADD PUSH2 0xD3B JUMP JUMPDEST SWAP2 POP POP SWAP3 POP SWAP3 POP SWAP3 JUMP JUMPDEST PUSH1 0x0 DUP2 SWAP1 POP SWAP2 SWAP1 POP JUMP JUMPDEST PUSH2 0xFA2 DUP2 PUSH2 0xF8F JUMP JUMPDEST DUP2 EQ PUSH2 0xFAD JUMPI PUSH1 0x0 DUP1 REVERT JUMPDEST POP JUMP JUMPDEST PUSH1 0x0 DUP2 CALLDATALOAD SWAP1 POP PUSH2 0xFBF DUP2 PUSH2 0xF99 JUMP JUMPDEST SWAP3 SWAP2 POP POP JUMP JUMPDEST PUSH1 0x0 PUSH1 0x20 DUP3 DUP5 SUB SLT ISZERO PUSH2 0xFDB JUMPI PUSH2 0xFDA PUSH2 0xC19 JUMP JUMPDEST JUMPDEST PUSH1 0x0 PUSH2 0xFE9 DUP5 DUP3 DUP6 ADD PUSH2 0xFB0 JUMP JUMPDEST SWAP2 POP POP SWAP3 SWAP2 POP POP JUMP JUMPDEST PUSH1 0x0 DUP2 MLOAD SWAP1 POP SWAP2 SWAP1 POP JUMP JUMPDEST PUSH1 0x0 DUP3 DUP3 MSTORE PUSH1 0x20 DUP3 ADD SWAP1 POP SWAP3 SWAP2 POP POP JUMP JUMPDEST PUSH1 0x0 JUMPDEST DUP4 DUP2 LT ISZERO PUSH2 0x102C JUMPI DUP1 DUP3 ADD MLOAD DUP2 DUP5 ADD MSTORE PUSH1 0x20 DUP2 ADD SWAP1 POP PUSH2 0x1011 JUMP JUMPDEST PUSH1 0x0 DUP5 DUP5 ADD MSTORE POP POP POP POP JUMP JUMPDEST PUSH1 0x0 PUSH2 0x1043 DUP3 PUSH2 0xFF2 JUMP JUMPDEST PUSH2 0x104D DUP2 DUP6 PUSH2 0xFFD JUMP JUMPDEST SWAP4 POP PUSH2 0x105D DUP2 DUP6 PUSH1 0x20 DUP7 ADD PUSH2 0x100E JUMP JUMPDEST PUSH2 0x1066 DUP2 PUSH2 0xC2D JUMP JUMPDEST DUP5 ADD SWAP2 POP POP SWAP3 SWAP2 POP POP JUMP JUMPDEST PUSH1 0x0 PUSH1 0xE0 DUP3 ADD SWAP1 POP DUP2 DUP2 SUB PUSH1 0x0 DUP4 ADD MSTORE PUSH2 0x108B DUP2 DUP11 PUSH2 0x1038 JUMP JUMPDEST SWAP1 POP DUP2 DUP2 SUB PUSH1 0x20 DUP4 ADD MSTORE PUSH2 0x109F DUP2 DUP10 PUSH2 0x1038 JUMP JUMPDEST SWAP1 POP DUP2 DUP2 SUB PUSH1 0x40 DUP4 ADD MSTORE PUSH2 0x10B3 DUP2 DUP9 PUSH2 0x1038 JUMP JUMPDEST SWAP1 POP DUP2 DUP2 SUB PUSH1 0x60 DUP4 ADD MSTORE PUSH2 0x10C7 DUP2 DUP8 PUSH2 0x1038 JUMP JUMPDEST SWAP1 POP DUP2 DUP2 SUB PUSH1 0x80 DUP4 ADD MSTORE PUSH2 0x10DB DUP2 DUP7 PUSH2 0x1038 JUMP JUMPDEST SWAP1 POP DUP2 DUP2 SUB PUSH1 0xA0 DUP4 ADD MSTORE PUSH2 0x10EF DUP2 DUP6 PUSH2 0x1038 JUMP JUMPDEST SWAP1 POP DUP2 DUP2 SUB PUSH1 0xC0 DUP4 ADD MSTORE PUSH2 0x1103 DUP2 DUP5 PUSH2 0x1038 JUMP JUMPDEST SWAP1 POP SWAP9 SWAP8 POP POP POP POP POP POP POP POP JUMP JUMPDEST PUSH1 0x0 DUP2 MLOAD SWAP1 POP SWAP2 SWAP1 POP JUMP JUMPDEST PUSH1 0x0 DUP3 DUP3 MSTORE PUSH1 0x20 DUP3 ADD SWAP1 POP SWAP3 SWAP2 POP POP JUMP JUMPDEST PUSH1 0x0 DUP2 SWAP1 POP PUSH1 0x20 DUP3 ADD SWAP1 POP SWAP2 SWAP1 POP JUMP JUMPDEST PUSH1 0x0 DUP3 DUP3 MSTORE PUSH1 0x20 DUP3 ADD SWAP1 POP SWAP3 SWAP2 POP POP JUMP JUMPDEST PUSH1 0x0 PUSH2 0x1159 DUP3 PUSH2 0xFF2 JUMP JUMPDEST PUSH2 0x1163 DUP2 DUP6 PUSH2 0x113D JUMP JUMPDEST SWAP4 POP PUSH2 0x1173 DUP2 DUP6 PUSH1 0x20 DUP7 ADD PUSH2 0x100E JUMP JUMPDEST PUSH2 0x117C DUP2 PUSH2 0xC2D JUMP JUMPDEST DUP5 ADD SWAP2 POP POP SWAP3 SWAP2 POP POP JUMP JUMPDEST PUSH1 0x0 PUSH1 0xE0 DUP4 ADD PUSH1 0x0 DUP4 ADD MLOAD DUP5 DUP3 SUB PUSH1 0x0 DUP7 ADD MSTORE PUSH2 0x11A4 DUP3 DUP3 PUSH2 0x114E JUMP JUMPDEST SWAP2 POP POP PUSH1 0x20 DUP4 ADD MLOAD DUP5 DUP3 SUB PUSH1 0x20 DUP7 ADD MSTORE PUSH2 0x11BE DUP3 DUP3 PUSH2 0x114E JUMP JUMPDEST SWAP2 POP POP PUSH1 0x40 DUP4 ADD MLOAD DUP5 DUP3 SUB PUSH1 0x40 DUP7 ADD MSTORE PUSH2 0x11D8 DUP3 DUP3 PUSH2 0x114E JUMP JUMPDEST SWAP2 POP POP PUSH1 0x60 DUP4 ADD MLOAD DUP5 DUP3 SUB PUSH1 0x60 DUP7 ADD MSTORE PUSH2 0x11F2 DUP3 DUP3 PUSH2 0x114E JUMP JUMPDEST SWAP2 POP POP PUSH1 0x80 DUP4 ADD MLOAD DUP5 DUP3 SUB PUSH1 0x80 DUP7 ADD MSTORE PUSH2 0x120C DUP3 DUP3 PUSH2 0x114E JUMP JUMPDEST SWAP2 POP POP PUSH1 0xA0 DUP4 ADD MLOAD DUP5 DUP3 SUB PUSH1 0xA0 DUP7 ADD MSTORE PUSH2 0x1226 DUP3 DUP3 PUSH2 0x114E JUMP JUMPDEST SWAP2 POP POP PUSH1 0xC0 DUP4 ADD MLOAD DUP5 DUP3 SUB PUSH1 0xC0 DUP7 ADD MSTORE PUSH2 0x1240 DUP3 DUP3 PUSH2 0x114E JUMP JUMPDEST SWAP2 POP POP DUP1 SWAP2 POP POP SWAP3 SWAP2 POP POP JUMP JUMPDEST PUSH1 0x0 PUSH2 0x1259 DUP4 DUP4 PUSH2 0x1187 JUMP JUMPDEST SWAP1 POP SWAP3 SWAP2 POP POP JUMP JUMPDEST PUSH1 0x0 PUSH1 0x20 DUP3 ADD SWAP1 POP SWAP2 SWAP1 POP JUMP JUMPDEST PUSH1 0x0 PUSH2 0x1279 DUP3 PUSH2 0x1111 JUMP JUMPDEST PUSH2 0x1283 DUP2 DUP6 PUSH2 0x111C JUMP JUMPDEST SWAP4 POP DUP4 PUSH1 0x20 DUP3 MUL DUP6 ADD PUSH2 0x1295 DUP6 PUSH2 0x112D JUMP JUMPDEST DUP1 PUSH1 0x0 JUMPDEST DUP6 DUP2 LT ISZERO PUSH2 0x12D1 JUMPI DUP5 DUP5 SUB DUP10 MSTORE DUP2 MLOAD PUSH2 0x12B2 DUP6 DUP3 PUSH2 0x124D JUMP JUMPDEST SWAP5 POP PUSH2 0x12BD DUP4 PUSH2 0x1261 JUMP JUMPDEST SWAP3 POP PUSH1 0x20 DUP11 ADD SWAP10 POP POP PUSH1 0x1 DUP2 ADD SWAP1 POP PUSH2 0x1299 JUMP JUMPDEST POP DUP3 SWAP8 POP DUP8 SWAP6 POP POP POP POP POP POP SWAP3 SWAP2 POP POP JUMP JUMPDEST PUSH1 0x0 PUSH1 0x20 DUP3 ADD SWAP1 POP DUP2 DUP2 SUB PUSH1 0x0 DUP4 ADD MSTORE PUSH2 0x12FD DUP2 DUP5 PUSH2 0x126E JUMP JUMPDEST SWAP1 POP SWAP3 SWAP2 POP POP JUMP JUMPDEST PUSH32 0x4E487B7100000000000000000000000000000000000000000000000000000000 PUSH1 0x0 MSTORE PUSH1 0x22 PUSH1 0x4 MSTORE PUSH1 0x24 PUSH1 0x0 REVERT JUMPDEST PUSH1 0x0 PUSH1 0x2 DUP3 DIV SWAP1 POP PUSH1 0x1 DUP3 AND DUP1 PUSH2 0x134C JUMPI PUSH1 0x7F DUP3 AND SWAP2 POP JUMPDEST PUSH1 0x20 DUP3 LT DUP2 SUB PUSH2 0x135F JUMPI PUSH2 0x135E PUSH2 0x1305 JUMP JUMPDEST JUMPDEST POP SWAP2 SWAP1 POP JUMP JUMPDEST PUSH1 0x0 DUP2 SWAP1 POP DUP2 PUSH1 0x0 MSTORE PUSH1 0x20 PUSH1 0x0 KECCAK256 SWAP1 POP SWAP2 SWAP1 POP JUMP JUMPDEST PUSH1 0x0 PUSH1 0x20 PUSH1 0x1F DUP4 ADD DIV SWAP1 POP SWAP2 SWAP1 POP JUMP JUMPDEST PUSH1 0x0 DUP3 DUP3 SHL SWAP1 POP SWAP3 SWAP2 POP POP JUMP JUMPDEST PUSH1 0x0 PUSH1 0x8 DUP4 MUL PUSH2 0x13C7 PUSH32 0xFFFFFFFFFFFFFFFFFFFFFFFFFFFFFFFFFFFFFFFFFFFFFFFFFFFFFFFFFFFFFFFF DUP3 PUSH2 0x138A JUMP JUMPDEST PUSH2 0x13D1 DUP7 DUP4 PUSH2 0x138A JUMP JUMPDEST SWAP6 POP DUP1 NOT DUP5 AND SWAP4 POP DUP1 DUP7 AND DUP5 OR SWAP3 POP POP POP SWAP4 SWAP3 POP POP POP JUMP JUMPDEST PUSH1 0x0 DUP2 SWAP1 POP SWAP2 SWAP1 POP JUMP JUMPDEST PUSH1 0x0 PUSH2 0x140E PUSH2 0x1409 PUSH2 0x1404 DUP5 PUSH2 0xF8F JUMP JUMPDEST PUSH2 0x13E9 JUMP JUMPDEST PUSH2 0xF8F JUMP JUMPDEST SWAP1 POP SWAP2 SWAP1 POP JUMP JUMPDEST PUSH1 0x0 DUP2 SWAP1 POP SWAP2 SWAP1 POP JUMP JUMPDEST PUSH2 0x1428 DUP4 PUSH2 0x13F3 JUMP JUMPDEST PUSH2 0x143C PUSH2 0x1434 DUP3 PUSH2 0x1415 JUMP JUMPDEST DUP5 DUP5 SLOAD PUSH2 0x1397 JUMP JUMPDEST DUP3 SSTORE POP POP POP POP JUMP JUMPDEST PUSH1 0x0 SWAP1 JUMP JUMPDEST PUSH2 0x1451 PUSH2 0x1444 JUMP JUMPDEST PUSH2 0x145C DUP2 DUP5 DUP5 PUSH2 0x141F JUMP JUMPDEST POP POP POP JUMP JUMPDEST JUMPDEST DUP2 DUP2 LT ISZERO PUSH2 0x1480 JUMPI PUSH2 0x1475 PUSH1 0x0 DUP3 PUSH2 0x1449 JUMP JUMPDEST PUSH1 0x1 DUP2 ADD SWAP1 POP PUSH2 0x1462 JUMP JUMPDEST POP POP JUMP JUMPDEST PUSH1 0x1F DUP3 GT ISZERO PUSH2 0x14C5 JUMPI PUSH2 0x1496 DUP2 PUSH2 0x1365 JUMP JUMPDEST PUSH2 0x149F DUP5 PUSH2 0x137A JUMP JUMPDEST DUP2 ADD PUSH1 0x20 DUP6 LT ISZERO PUSH2 0x14AE JUMPI DUP2 SWAP1 POP JUMPDEST PUSH2 0x14C2 PUSH2 0x14BA DUP6 PUSH2 0x137A JUMP JUMPDEST DUP4 ADD DUP3 PUSH2 0x1461 JUMP JUMPDEST POP POP JUMPDEST POP POP POP JUMP JUMPDEST PUSH1 0x0 DUP3 DUP3 SHR SWAP1 POP SWAP3 SWAP2 POP POP JUMP JUMPDEST PUSH1 0x0 PUSH2 0x14E8 PUSH1 0x0 NOT DUP5 PUSH1 0x8 MUL PUSH2 0x14CA JUMP JUMPDEST NOT DUP1 DUP4 AND SWAP2 POP POP SWAP3 SWAP2 POP POP JUMP JUMPDEST PUSH1 0x0 PUSH2 0x1501 DUP4 DUP4 PUSH2 0x14D7 JUMP JUMPDEST SWAP2 POP DUP3 PUSH1 0x2 MUL DUP3 OR SWAP1 POP SWAP3 SWAP2 POP POP JUMP JUMPDEST PUSH2 0x151A DUP3 PUSH2 0xFF2 JUMP JUMPDEST PUSH8 0xFFFFFFFFFFFFFFFF DUP2 GT ISZERO PUSH2 0x1533 JUMPI PUSH2 0x1532 PUSH2 0xC3E JUMP JUMPDEST JUMPDEST PUSH2 0x153D DUP3 SLOAD PUSH2 0x1334 JUMP JUMPDEST PUSH2 0x1548 DUP3 DUP3 DUP6 PUSH2 0x1484 JUMP JUMPDEST PUSH1 0x0 PUSH1 0x20 SWAP1 POP PUSH1 0x1F DUP4 GT PUSH1 0x1 DUP2 EQ PUSH2 0x157B JUMPI PUSH1 0x0 DUP5 ISZERO PUSH2 0x1569 JUMPI DUP3 DUP8 ADD MLOAD SWAP1 POP JUMPDEST PUSH2 0x1573 DUP6 DUP3 PUSH2 0x14F5 JUMP JUMPDEST DUP7 SSTORE POP PUSH2 0x15DB JUMP JUMPDEST PUSH1 0x1F NOT DUP5 AND PUSH2 0x1589 DUP7 PUSH2 0x1365 JUMP JUMPDEST PUSH1 0x0 JUMPDEST DUP3 DUP2 LT ISZERO PUSH2 0x15B1 JUMPI DUP5 DUP10 ADD MLOAD DUP3 SSTORE PUSH1 0x1 DUP3 ADD SWAP2 POP PUSH1 0x20 DUP6 ADD SWAP5 POP PUSH1 0x20 DUP2 ADD SWAP1 POP PUSH2 0x158C JUMP JUMPDEST DUP7 DUP4 LT ISZERO PUSH2 0x15CE JUMPI DUP5 DUP10 ADD MLOAD PUSH2 0x15CA PUSH1 0x1F DUP10 AND DUP3 PUSH2 0x14D7 JUMP JUMPDEST DUP4 SSTORE POP JUMPDEST PUSH1 0x1 PUSH1 0x2 DUP9 MUL ADD DUP9 SSTORE POP POP POP JUMPDEST POP POP POP POP POP POP JUMP JUMPDEST PUSH32 0x4E487B7100000000000000000000000000000000000000000000000000000000 PUSH1 0x0 MSTORE PUSH1 0x32 PUSH1 0x4 MSTORE PUSH1 0x24 PUSH1 0x0 REVERT JUMPDEST PUSH1 0x0 DUP2 SWAP1 POP SWAP3 SWAP2 POP POP JUMP JUMPDEST PUSH1 0x0 PUSH2 0x1628 DUP3 PUSH2 0xFF2 JUMP JUMPDEST PUSH2 0x1632 DUP2 DUP6 PUSH2 0x1612 JUMP JUMPDEST SWAP4 POP PUSH2 0x1642 DUP2 DUP6 PUSH1 0x20 DUP7 ADD PUSH2 0x100E JUMP JUMPDEST DUP1 DUP5 ADD SWAP2 POP POP SWAP3 SWAP2 POP POP JUMP JUMPDEST PUSH1 0x0 PUSH2 0x165A DUP3 DUP5 PUSH2 0x161D JUMP JUMPDEST SWAP2 POP DUP2 SWAP1 POP SWAP3 SWAP2 POP POP JUMP JUMPDEST PUSH1 0x0 DUP2 SLOAD PUSH2 0x1672 DUP2 PUSH2 0x1334 JUMP JUMPDEST PUSH2 0x167C DUP2 DUP7 PUSH2 0x1612 JUMP JUMPDEST SWAP5 POP PUSH1 0x1 DUP3 AND PUSH1 0x0 DUP2 EQ PUSH2 0x1697 JUMPI PUSH1 0x1 DUP2 EQ PUSH2 0x16AC JUMPI PUSH2 0x16DF JUMP JUMPDEST PUSH1 0xFF NOT DUP4 AND DUP7 MSTORE DUP2 ISZERO ISZERO DUP3 MUL DUP7 ADD SWAP4 POP PUSH2 0x16DF JUMP JUMPDEST PUSH2 0x16B5 DUP6 PUSH2 0x1365 JUMP JUMPDEST PUSH1 0x0 JUMPDEST DUP4 DUP2 LT ISZERO PUSH2 0x16D7 JUMPI DUP2 SLOAD DUP2 DUP10 ADD MSTORE PUSH1 0x1 DUP3 ADD SWAP2 POP PUSH1 0x20 DUP2 ADD SWAP1 POP PUSH2 0x16B8 JUMP JUMPDEST DUP4 DUP9 ADD SWAP6 POP POP POP JUMPDEST POP POP POP SWAP3 SWAP2 POP POP JUMP JUMPDEST PUSH1 0x0 PUSH2 0x16F4 DUP3 DUP5 PUSH2 0x1665 JUMP JUMPDEST SWAP2 POP DUP2 SWAP1 POP SWAP3 SWAP2 POP POP JUMP JUMPDEST PUSH32 0x4E487B7100000000000000000000000000000000000000000000000000000000 PUSH1 0x0 MSTORE PUSH1 0x11 PUSH1 0x4 MSTORE PUSH1 0x24 PUSH1 0x0 REVERT JUMPDEST PUSH1 0x0 PUSH1 0xFF DUP3 AND SWAP1 POP SWAP2 SWAP1 POP JUMP JUMPDEST PUSH1 0x0 PUSH2 0x1746 DUP3 PUSH2 0x172E JUMP JUMPDEST SWAP2 POP PUSH1 0xFF DUP3 SUB PUSH2 0x1759 JUMPI PUSH2 0x1758 PUSH2 0x16FF JUMP JUMPDEST JUMPDEST PUSH1 0x1 DUP3 ADD SWAP1 POP SWAP2 SWAP1 POP JUMP INVALID LOG2 PUSH5 0x6970667358 0x22 SLT KECCAK256 MSTORE8 REVERT DELEGATECALL 0xC0 DUP13 CALLDATASIZE NUMBER 0xE6 STOP SWAP1 SWAP16 0xE6 JUMPDEST 0x1E 0xFC MULMOD SELFDESTRUCT SMOD SWAP2 DUP13 PUSH21 0x30EEDCFB802C619683068764736F6C634300081300 CALLER "},"methodIdentifiers":{"Complains(uint256)":"7cfa762c","addComplains(string,string,string,string,string)":"2bdff69b","addReport(string,string,string)":"6bbdb899","addStatus(string,string)":"49d9bf59","getPhoneComplaints()":"bc0c8f73"}}}}}